:020000040800F2
:1000000020130020A1010008C93800086D32000843
:10001000F9350008350700086D47000800000000AA
:1000200000000000000000000000000009010008BE
:10003000D10C0008000000004D010008214000081C
:1000400071470008BB010008BB010008553E0008CD
:10005000BB010008BB010008BB010008BB01000890
:10006000BB010008BB010008BB010008BB01000880
:10007000BB010008BB010008BB010008BB01000870
:10008000BB010008BB010008BB010008BB01000860
:10009000BB010008BB010008BB010008BB01000850
:1000A000BB010008BB010008BB010008BB01000840
:1000B00069420008BB010008BB010008BB01000841
:1000C000BB010008BB010008BB010008BB01000820
:1000D000BB010008BB010008BB0100082D47000858
:1000E000BB010008BB010008BB010008BB01000800
:1000F000BB010008DFF80CD000F0E4F8004800472E
:100100005D4A000820130020224B19680868B0E8F7
:10011000F00F80F30988BFF36F8F4FF0000080F37A
:1001200011884EF00D0E7047000000000648006870
:10013000006880F3088862B661B6BFF34F8FBFF3E3
:100140006F8F00DF00BF00BF08ED00E0EFF3098014
:10015000BFF36F8F0F4B1A6820E9F00F106008B5DE
:100160004FF0500080F31188BFF34F8FBFF36F8FB4
:1001700005F040FB4FF0000080F31188BDE8084017
:1001800019680868B0E8F00F80F30988BFF36F8F33
:10019000704700BF48000020EFF305807047000063
:1001A0000648804706480047FEE7FEE7FEE7FEE711
:1001B000FEE7FEE7FEE7FEE7FEE7FEE70542000892
:1001C000F500000840EA01039B0703D009E008C9D5
:1001D000121F08C0042AFAD203E011F8013B00F80C
:1001E000013B521EF9D27047D2B201E000F8012B58
:1001F000491EFBD270470022F6E710B513460A46A7
:1002000004461946FFF7F0FF204610BD421E12F8C3
:10021000013F002BFBD111F8013B02F8013B002B01
:10022000F9D1704796230022114600F01DB820F046
:100230000040C10DC0F3160040F400007F2901DA30
:1002400000207047962903DCC1F19601C840704731
:100250009639884070470029A8BF7047401C490064
:1002600008BF20F00100704710B4B0FA80FC00FA1B
:100270000CF050EA010404BF10BC704749B1CCF146
:10028000200421FA04F411FA0CF118BF01212143D2
:100290000843A3EB0C01CB1D4FEA00614FEA10208D
:1002A00042BF002010BC704700EBC350104400292F
:1002B000A4BF10BC7047401C490008BF20F00100DB
:1002C00010BC7047064C074D06E0E06840F00103A3
:1002D00094E8070098471034AC42F6D3FFF70EFFBE
:1002E000746600089466000870B50446002520680E
:1002F0000068C0F38010F0B12068806820F0010031
:100300002168886001F05CF905460EE001F058F9BB
:10031000401B022809D9E06C40F01000E064206D19
:1003200040F001002065012070BD20680068C0F326
:1003300080100028EAD10020F6E7000038B5044616
:1003400000250020009020680068C0F3801090BB5A
:100350002068806840F001002168886017480068C4
:100360001749B0FBF1F000EB4000009002E000986C
:10037000401E009000980028F9D101F021F90546AF
:1003800013E001F01DF9401B02280ED9E06C40F08B
:100390001000E064206D40F00100206500BF0020E7
:1003A00084F8480000BF012038BD20680068C0F311
:1003B00080100028E5D00020F6E7000000000020B3
:1003C00040420F000EB517481749086000204860EA
:1003D000002115488160C160016141618161C16195
:1003E00001624162012181620021C16210214163E9
:1003F00000218163C16300F0BDFD18B12C210BA069
:1004000000F067FC0A200090012001900720029074
:100410006946054800F0BEFC18B1362103A000F083
:1004200058FC0EBD00240140B80100202E2E5C4275
:1004300053505C4144435C6164632E6300000000E0
:100440001FB50324244A07CA01AB07C33EE003F0EB
:1004500011F822A004F010FA03F012FD01A804F034
:10046000C1F923E020484088322811DD01231FA272
:1004700003210C2003F040FB03F012FD012003F0E8
:10048000BDF84FF4FA6005F0A1F8204604B010BDA5
:10049000012000901448B0F86A20042303210C20A6
:1004A00003F0EBFA4FF4967005F090F80E48B0F8B0
:1004B0006A0041F270718842D4DD0EA004F014FE8F
:1004C0004FF47A7005F082F8601EC4B2002CBED1E1
:1004D00003F0E6FC2046D9E7E06400085245424FAD
:1004E0004F542E2E2E000000F4000020202020204B
:1004F000000000002D204F56455254494D45202DF7
:10050000000000003EB50324264903C9CDE90101DE
:1005100042E002F0AFFF24A004F0AEF903F0B0FC1B
:1005200001A804F05FF927E022484088B0B12149D2
:10053000091D21A003F0FCFC80B1012320A20321AE
:100540000C2003F0D9FA03F0ABFC012003F056F8BD
:100550004FF47A7005F03AF820463EBD0120009035
:100560001448B0F86A20042303210C2003F085FA14
:100570004FF4967005F02AF80E48B0F86A0040F67D
:10058000B8318842D0DD10A004F0AEFD4FF47A708F
:1005900005F01CF8601EC4B2002CBAD103F080FC38
:1005A0002046DAE7EC640008415420544553542EA9
:1005B0002E2E0000F40000200D0A4F4B0D0A000003
:1005C00020202020000000002D204F564552544985
:1005D0004D45202D0000000010B5032401201549D1
:1005E000087021E0FFF72CFF00B91BE0FFF78AFF3E
:1005F00000B917E010A000F017F900B912E000F000
:1006000097F900B90EE012A003F05AF800B909E01A
:1006100000F074FA00B905E002200649087000F005
:1006200061F803E0601EC4B2002CDBD100BF20469D
:1006300010BD00002C0000203138302E3130312E1A
:100640003134372E3131352C353638330000000047
:100650003500000000B587B000BF1F48006840F0BB
:1006600008001D4908600846006800F00800019075
:1006700000BF00BF042002900120039000200490DE
:100680000220059002A9154800F0ACFE01220421C9
:10069000124800F08FFF00BF0F48006840F00400D0
:1006A0000D4908600846006800F00400019000BF92
:1006B00000BF081502900120039000200490022042
:1006C000059002A9064800F08DFE0122910204481F
:1006D00000F070FF07B000BD1C380240000C024063
:1006E0000008024010B510480078012802D0022806
:1006F00016D10AE004F0F4FD01230CA20021084603
:1007000003F0FAF904F016FE0BE004F0E9FD012312
:1007100007A20021084603F0EFF904F00BFE00E009
:1007200000BF00BF10BD00002C000020464C0000A0
:100730004F4C000000BFFEE730B591B005460324E2
:1007400040222B4901A8FFF73DFD294601A8FFF7EC
:100750005DFD28A101A8FFF759FD43E002F08AFEE4
:1007600025A004F089F803F08BFB01A804F03AF807
:1007700028E024484088B8B12249091D22A003F08E
:10078000D7FB88B1012322A203210C2003F0B4F986
:1007900003F086FB012002F031FF4FF47A7004F081
:1007A00015FF204611B030BD012000901548B0F86B
:1007B0006A20042303210C2003F05FF94FF49670A4
:1007C00004F004FF0F48B0F86A0040F6B8318842E0
:1007D000CFDD11A004F088FC4FF47A7004F0F6FE2F
:1007E000601EC4B2002CB9D103F05AFB2046D9E7F1
:1007F0002C6500080D0A0000434450204366672E14
:100800002E2E0000F40000200D0A4F4B0D0A0000B0
:1008100020202020000000002D204F564552544932
:100820004D45202D0000000030B58FB00546032453
:10083000304B0FCBCDE90D23CDE90B0128222D49FB
:10084000103101A8FFF7BEFC294601A8FFF7DEFC26
:1008500029A101A8FFF7DAFC46E002F00BFE29A06F
:1008600004F00AF803F00CFB0BA803F0BBFF28E030
:1008700028484088B8B12749091D01A803F058FB52
:1008800088B1012324A203210C2003F035F903F0E1
:1008900007FB012002F0B2FE4FF47A7004F096FEDE
:1008A00020460FB030BD012000901A48B0F86A20F1
:1008B000042303210C2003F0E0F84FF4967004F0B9
:1008C00085FE1448B0F86A0040F6B8318842CFDDA2
:1008D00013A004F009FC4FF47A7004F077FE284668
:1008E000FFF72AFF601EC4B2002CB6D103F0D8FA7D
:1008F0002046D6E7F46400080D0A0D0A4F4B0D0A96
:10090000000000004346554E204765745365742E21
:100910002E2E0000F40000202020202000000000E7
:100920002D204F56455254494D45202D00000000C2
:1009300010B586B00324294B0FCBCDE90423CDE9B4
:10094000020145E002F096FD25A003F095FF03F0BB
:1009500097FA02A803F046FF28E025484088B8B17E
:100960002349091D23A003F0E3FA88B1012326A23D
:1009700003210C2003F0C0F803F092FA012002F0EA
:100980003DFE4FF47A7004F021FE204606B010BD03
:10099000012000901648B0F86A20042303210C209F
:1009A00003F06BF84FF4967004F010FE1048B0F8A6
:1009B0006A0040F6B8318842CFDD15A004F094FB00
:1009C0004FF47A7004F002FE00F02AF8601EC4B200
:1009D000002CB7D103F064FA2046D7E76C65000815
:1009E0004346554E204765745365742E2E2E0000E5
:1009F000F40000200D0A2B4346554E3A310D0A0DE6
:100A00000A4F4B0D0A0000002020202000000000AB
:100A10002D204F56455254494D45202D00000000D1
:100A200010B586B00324284B0FCBCDE90423CDE9C4
:100A3000020143E002F01EFD24A003F01DFF03F0BD
:100A40001FFA02A803F0CEFE28E023484088B8B180
:100A50002149091D21A003F06BFA88B1012321A2CD
:100A600003210C2003F048F803F01AFA012002F0E9
:100A7000C5FD4FF4FA6004F0A9FD204606B010BD94
:100A8000012000901448B0F86A20042303210C20B0
:100A900002F0F3FF4FF4967004F098FD0E48B0F8A2
:100AA0006A0040F6B8318842CFDD10A004F01CFB8C
:100AB0004FF47A7004F08AFD601EC4B2002CB9D1E4
:100AC00003F0EEF92046D9E77C6500084346554E11
:100AD000205345542E2E2E00F40000200D0A4F4BBB
:100AE0000D0A000020202020000000002D204F567D
:100AF000455254494D45202D0000000010B586B0E8
:100B000008242A4B0FCBCDE90423CDE9020100F0E4
:100B10006FF845E002F0AEFC25A003F0ADFE03F057
:100B2000AFF902A803F05EFE28E025484088B8B17E
:100B30002349091D23A003F0FBF988B1012326A254
:100B400003210C2002F0D8FF03F0AAF9012002F0E3
:100B500055FD4FF47A7004F039FD204606B010BD03
:100B6000012000901648B0F86A20042303210C20CD
:100B700002F083FF4FF4967004F028FD1048B0F89F
:100B80006A0041F288318842CFDD15A004F0ACFA4A
:100B90004FF47A7004F01AFD00F02AF8601EC4B217
:100BA000002CB7D103F07CF92046D7E7CC650008CC
:100BB0004347415454204765745365742E2E2E00CC
:100BC000F40000200D0A2B43474154543A310D0ADA
:100BD0000D0A4F4B0D0A00002020202000000000CD
:100BE0002D204F56455254494D45202D0000000000
:100BF00010B586B00824284B0FCBCDE90423CDE9EE
:100C0000020143E002F036FC24A003F035FE03F0BD
:100C100037F902A803F0E6FD28E024484088B8B17F
:100C20002249091D22A003F083F988B1012322A2E1
:100C300003210C2002F060FF03F032F9012002F0E2
:100C4000DDFC4FF47A7004F0C1FC204606B010BD04
:100C5000012000901548B0F86A20042303210C20DD
:100C600002F00BFF4FF4967004F0B0FC0F48B0F8A0
:100C70006A0040F6B8318842CFDD11A004F034FAA2
:100C80004FF47A7004F0A2FC601EC4B2002CB9D1FB
:100C900003F006F92046D9E7DC65000843474154D4
:100CA00054205345542E2E2E00000000F400002046
:100CB0000D0A4F4B0D0A00002020202000000000EC
:100CC0002D204F56455254494D45202D000000001F
:100CD000704704460D462946204600F003F800BF41
:100CE000FEE7000038B504460D4602F029FE012358
:100CF00009A200211E2002F0FFFE0123224602214C
:100D0000002002F0F9FE012005232A46032100906D
:100D1000002002F0B2FE38BD2D204552524F522025
:100D20002D00000038B5002401220221164800F0F1
:100D300041FC642004F04AFC00BF1448006840F401
:100D40000070124908600846006800F400700090C6
:100D500000BF00BF0E4800F033FA142004F036FC48
:100D60000B4800F07BFA00220221074800F022FC29
:100D7000074800F0FBF884B20448006820F40070D3
:100D800002490860204638BD000802402038024071
:100D9000B801002038B5024600230020009000BFB3
:100DA00092F84800012801D1022038BD012082F8C4
:100DB000480000BF4868072812D21068006C0C7900
:100DC000641E04EB84051F24AC40A0430D796D1E06
:100DD00005EB85050C68AC4020431468206453E0A3
:100DE00048680D2812D21068C06B0C79E41F04EB20
:100DF00084051F24AC40A0430D79ED1F05EB85054C
:100E00000C68AC4020431468E0633DE04868132858
:100E100012D21068806B0C790D3C04EB84051F2402
:100E2000AC40A0430D790D3D05EB85050C68AC4049
:100E300020431468A06327E04868192812D210687C
:100E4000406B0C79133C04EB84051F24AC40A04399
:100E50000D79133D05EB85050C68AC402043146803
:100E6000606311E01068006B0C79193C04EB840599
:100E70001F24AC40A0430D79193D05EB85050C6896
:100E8000AC4020431468206308680A2810D2106818
:100E900040690C7804EB44050724AC40A0430D786E
:100EA00005EB45058C68AC402043146860612CE07C
:100EB0000868142812D2106800690C780A3C04EB08
:100EC00044050724AC40A0430D780A3D05EB4505D9
:100ED0008C68AC4020431468206116E008681A282A
:100EE00012D81068C0680C78143C04EB4405072441
:100EF000AC40A0430D78143D05EB45058C68AC4033
:100F000020431468E06000E000BF0868102802D0A9
:100F1000086811281DD11248006800F40000C0B90B
:100F20000F48006840F400000D4C2060086810284D
:100F30000FD10C4800680C4CB0FBF4F000EB8000C3
:100F40004000009002E00098401E009000980028A9
:100F5000F9D100BF002082F8480000BF184624E7FE
:100F6000042701400000002040420F0001460868AD
:100F7000806D7047F8B504460027002600250CB99F
:100F80000120F8BD206910B1E06A00B100BF606BBC
:100F9000102800D000BFE06CA0B90020206584F8C4
:100FA000480000BF6148006840F001005F490860E8
:100FB0000846006800F00100009000BF00BF204616
:100FC00000F0D6F8E06C00F01000002874D1E06C5E
:100FD00020F4885040F00200E0645548006820F496
:100FE000403061680843524908606169E06808431D
:100FF0004FF4007292FAA2F2B2FA82F2E16B9140DF
:101000000843216A0843022292FAA2F2B2FA82F25B
:10101000616A914008430543606B102803D0D4E90E
:101020000D010843054320680068C0F3801090BBA1
:10103000A0690543E169A06808432169B1F5807F93
:1010400002D02169012902D14FF4807100E0002112
:1010500008430643E06A012816D1606A60B9206B34
:10106000401E4FF4604191FAA1F1B1FA81F188403C
:1010700040F40060064307E0E06C40F02000E064CC
:10108000206D40F001002065206840682949084033
:101090003043216848602068806827490840284319
:1010A000216888602069B0F5807F02D0206901281E
:1010B00003D14FF4807001E035E00020B0F5807F6F
:1010C00010D12068006B20F0F871A06A401E4FF02C
:1010D000F87292FAA2F2B2FA82F2904001432068CA
:1010E000016305E02068006B20F0F8702168086358
:1010F0002068806811490840A84208D10020206576
:10110000E06C20F0020040F00100E0640CE0E06CD4
:1011100020F0020040F01000E064206D40F001007B
:101120002065012700E0012738462AE720380240E1
:1011300004270140FF16FCFC8DF1FFC0FEFF80BFBD
:1011400010B5044607492068884209D1064800685E
:1011500020F40070044908600121044800F0B2F84E
:1011600010BD000000240140203802400008024069
:1011700010B586B004460F492068884217D100BFD9
:101180000D48006840F400700B490860084600688C
:1011900000F40070009000BF00BF01200190032008
:1011A00002900020039001A9044800F01BF906B04A
:1011B00010BD000000240140203802400008024019
:1011C00070B50446002500BF94F84800012801D1FD
:1011D000022070BD012084F8480000BF2046FFF7C0
:1011E000ADF80546B5BBE06C40F20161884340F4C0
:1011F0008070E0642068406800F4806028B1E06C92
:1012000020F4005040F48050E064E06C00F4805022
:1012100020B1206D20F00600206501E0002020654F
:1012200000BF002084F8480000BF6FF02200216852
:1012300008602068406808490843216848602068C1
:10124000806800F0405028B92068806840F08040F5
:10125000216888602846BCE72000000470B5044679
:10126000002500BF94F84800012801D1022070BD7C
:10127000012084F8480000BF2046FFF735F80546F6
:101280005DB92068406820F0200021684860E06C6B
:1012900020F4885040F00100E06400BF002084F892
:1012A000480000BF2846E2E731B5002400F088F985
:1012B000044600BF00F084F9001B00998842F9D36E
:1012C00038BD0000F0B50B4600210022002476E076
:1012D00001258D4005EA0302002A6FD005684F0002
:1012E0000326BE40B5430560CE0800F1200555F841
:1012F00026504E07F70E0F26BE40B543CF0800F12B
:10130000200646F8275085684F000326BE40B543A7
:101310008560456801268E40B5434560C5684F002D
:101320000326BE40B543C560274D8E0855F82640BC
:101330008D072E0F0F25B5402C40244DA84201D11A
:10134000002514E0224DA84201D101250FE0214DD6
:10135000A84201D102250AE01F4DA84201D1032570
:1013600005E01E4DA84201D1042500E005258E07A9
:10137000360FB540A54221D18D072E0F0F2505FA56
:1013800006F4114D8E0855F82650A5430E4E8F08D1
:1013900046F82750124D2D689543114E3560351D86
:1013A0002D689543361D3560351D2D689543361DD6
:1013B0003560351D2D689543361D3560491C23FA6F
:1013C00001F5002D84D1F0BD08000140000002406D
:1013D0000004024000080240000C024000100240DD
:1013E0000004014078B50346002200240020CAE032
:1013F000012696400D6805EA0604002C71D04D6860
:10140000022D02D04D68122D13D1D60803F120050C
:1014100055F826005507EE0E0F25B540A843560790
:10142000F60E0D69B5402843D60803F1200545F8AE
:101430002600186856000325B540A8430D7905F02D
:1014400003055600B540284318604D68012D08D0AB
:101450004D68022D05D04D68112D02D04D68122D1A
:1014600013D1986856000325B540A8435600CD68AF
:10147000B54028439860586801259540A8430D79E8
:10148000C5F30015954028435860D86856000325D9
:10149000B540A84356008D68B5402843D8604D68D4
:1014A00005F08055B5F1805F6CD100BF394D2D68D6
:1014B00045F00105374E356035462D6805F00105CC
:1014C000009500BF00BF344D960855F826009507DB
:1014D0002E0F0F25B540A843304DAB4202D1002559
:1014E00015E04FE02E4DAB4201D101250FE02D4D0F
:1014F000AB4201D102250AE02B4DAB4201D10325BD
:1015000005E02A4DAB4201D1042500E005259607F0
:10151000360FB5402843204D960845F82600244D47
:101520002868A0434D6805F48035B5F5803F00D1AB
:1015300020431F4D28602D1D2868A0434D6805F4E9
:101540000035B5F5003F00D12043194D2D1D286011
:101550002D1D2868A0434D6805F48015B5F5801F42
:1015600000D12043124D083528602D1D2868A04366
:101570004D6805F40015B5F5001F00D120430C4D52
:101580000C352860521C0D68D540002D7FF430AF1B
:1015900078BD0000203802400800014000000240F1
:1015A0000004024000080240000C0240001002400B
:1015B000000401400AB1816101E00B0483617047BE
:1015C00001480068704700000C00002002480068D5
:1015D000401C0149086070470C00002010B500BF96
:1015E0000A48006840F0040008490860084600689E
:1015F00040F00200086000BF032000F0F7F80F2061
:1016000000F006F800F040F8002010BD003C024059
:1016100070B50446074800684FF47A71B0FBF1F5E5
:10162000284601F090FB00222146501E00F09FF852
:10163000002070BD0000002010B51048FFF780FDAD
:101640000F4801F0F1FC0F48006840F001000D491F
:1016500008600846006840F002000860084600681C
:1016600040F0040008600846006840F00800086088
:101670000846006840F02000086010BDB801002056
:10168000B40000201038024008B500BF29480068A7
:1016900040F00040274908600846006800F000401C
:1016A000009000BF00BF00BF081F006840F00100AD
:1016B000091F08600846006800F00100009000BFA4
:1016C00000BF00BF081D006840F08050091D086081
:1016D0000846006800F08050009000BF00BF032063
:1016E00000F084F8002211466FF00B0000F03FF884
:1016F000002211466FF00A0000F039F8002211466E
:101700006FF0090000F033F800221146501F00F07E
:101710002EF800221146101F00F029F800220F2198
:10172000901E00F024F800220F21501E00F01FF838
:1017300008BD00002438024000BF00F01F02012154
:101740009140034A430942F8231000BF704700004C
:1017500080E100E000BF00F01F020121914042093A
:10176000920002F1E022C2F8001100BF70472DE99B
:10177000F05F80460D461646002702F0A7F80746A0
:1017800039462A46334601F00700C0F1070ABAF18C
:10179000040F02D94FF0040A01E0C0F1070AD14654
:1017A00000F1040ABAF1070F02D24FF0000A01E07B
:1017B000A0F1030AD4464FF0010A0AFA09FAAAF185
:1017C000010A0AEA020A0AFA0CFA4FF0010B0BFAB4
:1017D0000CFBABF1010B0BEA030B4AEA0B042146AD
:1017E000404602F07BF8BDE8F09F000000BF00F02B
:1017F0000702064B19684FF6FF031940044B0B43D1
:1018000043EA0221014B196000BF70470CED00E074
:101810000000FA0500204FF4807191FAA1F1B1FAAD
:1018200081F1024A42F821007047000000000E4298
:101830000120010291FAA1F1B1FA81F1014A42F8C5
:101840002100704700000E420748006840F0020087
:10185000054908600548006840F004000349086035
:1018600000BF00BF30BF70470070004010ED00E0C7
:10187000F8B5044600260025207800F0010020B9C4
:10188000207800F0020002287ED1207800F00100CC
:1018900000B100BF207800F00200022800D100BF94
:1018A00000277148006800F0805070B900BF6E4892
:1018B000006840F080506C4908600846006800F0FD
:1018C0008050009000BF00BF01276848006800F406
:1018D0008070B0B96548006840F480706349086062
:1018E000FFF76EFE064606E0FFF76AFE801B6428DF
:1018F00001D90320F8BD5D48006800F4807000281D
:10190000F2D059482438006800F0C045606800F003
:10191000C040A84204D1A06800F0C040A8420DD049
:10192000606800F44030B0F5403F07D14E4824389D
:10193000006800F4003008B10120DBE74A481030AD
:10194000006800F44035002D62D0606800F440303B
:10195000A84203D0207800F0010048B9A06800F444
:101960004030A84254D0207800F0020002284FD125
:101970003D481030006820F440350120C10591FA3F
:10198000A1F1B1FA81F100E06BE0394A02EB81018B
:10199000C1F8800600204FF4000191FAA1F1B1FADC
:1019A00081F102EB8101C1F880062F4810300560FB
:1019B00005F4807060B3FFF703FE064608E0FFF70A
:1019C000FFFD801B41F28831884201D9032091E755
:1019D0004020C10091FAA1F1B1FA81F1084301213F
:1019E000B1EB601F03D120482438006802E01E4894
:1019F000103000684021CA0092FAA2F2B2FA82F2D4
:101A0000114301F01F020121914008400028D6D067
:101A100000BF00BF606800F44030B0F5403F0BD11C
:101A200011482438006820F0C040616801F0C041CE
:101A300008430D492439086000BF0B481030006886
:101A4000616801F44031084307491031086000BF64
:101A5000012F05D10448006820F080500249086039
:101A600000BF002046E7000024380240007000401C
:101A70000000474270B504460D460026B348006892
:101A800000F00100A84218D200BF012D05D1AF48D7
:101A9000006840F00400AD490860AC48006820F0E0
:101AA00001002843A949086000BF0846006800F00B
:101AB0000100A84201D0012070BD207800F0020092
:101AC000022807D1A248006820F0F000A16808436E
:101AD0009F490860207800F0010000287BD06068F2
:101AE000022821D12020010391FAA1F1B1FA81F15C
:101AF00008430121B1EB601F03D195480838006805
:101B000002E093482C30006820210A0392FAA2F2E6
:101B1000B2FA82F2114301F01F0201219140084004
:101B200000286CD10120C7E76068032820D120205D
:101B3000010591FAA1F1B1FA81F108430121B1EB5C
:101B4000601F03D182480838006802E080482C30CA
:101B5000006820210A0592FAA2F2B2FA82F2114339
:101B600001F01F02012191400840A8BB0120A3E71A
:101B70006068012820D12020022191FAA1F1B1FA58
:101B800081F108430121B1EB601F03D1704808388F
:101B9000006802E06E482C3000682021022292FA90
:101BA000A2F2B2FA82F2114301F01F020121914028
:101BB000084088B901207FE72020010191FAA1F1B6
:101BC000B1FA81F108430121B1EB601F05D16048F2
:101BD0000838006804E069E011E05D482C300068D6
:101BE00020210A0192FAA2F2B2FA82F2114301F024
:101BF0001F0201219140084008B901205CE75448C8
:101C0000006820F003006168084351490860FFF74D
:101C1000D7FC06466068022810D108E0FFF7D0FC28
:101C2000801B41F28831884201D9032044E74848AB
:101C3000006800F00C000828F0D137E06068032845
:101C400010D108E0FFF7BCFC801B41F288318842CC
:101C500001D9032030E73E48006800F00C000C2852
:101C6000F0D123E06068012810D108E0FFF7A8FC5C
:101C7000801B41F28831884201D903201CE7344897
:101C8000006800F00C000428F0D10FE008E0FFF736
:101C900097FC801B41F28831884201D903200BE771
:101CA0002B48006800F00C000028F0D1274800689D
:101CB00000F00100A84218D900BF012D05D123482A
:101CC000006840F00400214908602048006820F0C6
:101CD000010028431D49086000BF0846006800F065
:101CE0000100A84201D00120E6E6207800F00400BF
:101CF000042807D11648006820F4E060E168084332
:101D000013490860207800F00800082808D110481E
:101D1000006820F46050216940EAC1000C49086065
:101D200000F04EF80A49096801F0F001F02292FA39
:101D3000A2F2B2FA82F2D140064A515CC84006498A
:101D400008600F20FFF764FC0020B5E6003C02406D
:101D500008380240AD5C000800000020014800681F
:101D6000704700000000002000B5FFF7F7FF0749AB
:101D7000096801F4E0614FF4E06292FAA2F2B2FA6B
:101D800082F2D140024A515CC84000BD083802408E
:101D9000BD5C000800B5FFF7E1FF0749096801F4E1
:101DA00060514FF4605292FAA2F2B2FA82F2D1403C
:101DB000024A515CC84000BD08380240BD5C0008C2
:101DC000F0B5002100230024002200250020254E2C
:101DD000316801F00C067EB3042E04D0082E04D026
:101DE0000C2E2AD103E020483AE0204838E001F4E4
:101DF00070164FF4701797FAA7F7B7FA87F7FE40F7
:101E00001B4FBB5D01F440064FF4400797FAA7F75C
:101E1000B7FA87F7FE40741C124E366806F4803617
:101E200026B1124E5E43B6FBF4F203E00E4E5E4363
:101E3000B6FBF4F2104613E000E000BF094E361F77
:101E4000366806F460464FF4604797FAA7F7B7FA8A
:101E500087F726FA07F56E1C0127B740F80300BF85
:101E600000BFF0BD083802400024F40000127A00E0
:101E7000A45C0008F8B504460025207800F00100B5
:101E8000002879D0F748006800F00C0008280CD032
:101E9000F448006800F00C000C282BD1F1480068D1
:101EA00000F48030B0F5803F24D12020010391FA66
:101EB000A1F1B1FA81F108430121B1EB601F03D117
:101EC000E8480838006802E0E6482C300068202125
:101ED0000A0392FAA2F2B2FA82F2114301F01F024F
:101EE0000121914008400028CBD06068002843D1F0
:101EF0000120F8BD00BF6068012808D1D948083822
:101F0000006840F48030D749083908602DE06068E7
:101F100068B9D4480838006820F48030D1490839BD
:101F200008600846006820F4802008601DE06068B2
:101F300005280DD1CB480838006840F48020C949F5
:101F4000083908600846006840F4803008600CE0FA
:101F5000C4480838006820F48030C2490839086055
:101F60000846006820F48020086000BF606860B305
:101F7000FFF726FB054607E052E0FFF721FB401B79
:101F8000642801D90320B4E72020010391FAA1F1CC
:101F9000B1FA81F108430121B1EB601F03D1B148CF
:101FA0000838006802E0AF482C30006820210A039E
:101FB00092FAA2F2B2FA82F2114301F01F02012159
:101FC000914008400028D8D02AE0FFF7F9FA0546EA
:101FD00006E0FFF7F5FA401B642801D9032088E7E3
:101FE0002020010391FAA1F1B1FA81F10843012106
:101FF000B1EB601F03D19B480838006802E09948A4
:102000002C30006820210A0392FAA2F2B2FA82F27E
:10201000114301F01F020121914008400028D8D14E
:10202000207800F00200022845D18E48006800F0B8
:102030000C0004280AD08B48006800F00C000C2823
:102040003BD18848006800F48030A8BB20200221E2
:1020500091FAA1F1B1FA81F108430121B1EB601FBE
:1020600003D180480838006802E07E482C300068C0
:102070002021022292FAA2F2B2FA82F2114301F076
:102080001F0201219140084020B1E068012801D0E1
:1020900001202EE77348001F006820F4F8504FF429
:1020A000F85292FAA2F2B2FA82F221699140084300
:1020B0006C49091F08607DE0FFE7E068F0B301208C
:1020C00090FAA0F1B1FA81F1674A42F82100FFF7D6
:1020D00077FA054606E0FFF773FA401B022801D99C
:1020E000032006E72020022191FAA1F1B1FA81F143
:1020F00008430121B1EB601F03D15A48083800683A
:1021000002E058482C3000682021022292FAA2F204
:10211000B2FA82F2114301F01F02012191400840FE
:102120000028D8D04F48001F006820F4F8504FF422
:10213000F85292FAA2F2B2FA82F200E006E02169C5
:10214000914008434749091F086033E000200121FE
:1021500091FAA1F1B1FA81F1434A42F82100FFF767
:102160002FFA054606E0FFF72BFA401B022801D99B
:102170000320BEE62020022191FAA1F1B1FA81F1FB
:1021800008430121B1EB601F03D1364808380068CD
:1021900002E034482C3000682021022292FAA2F298
:1021A000B2FA82F2114301F01F020121914008406E
:1021B0000028D8D1207800F01000102873D12948C9
:1021C000006800F00C0000286ED12020010191FA77
:1021D000A1F1B1FA81F108430121B1EB601F03D1F4
:1021E00020480838006802E01E482C300068202192
:1021F0000A0192FAA2F2B2FA82F2114301F01F022E
:1022000001219140084018B1A06908B9012070E689
:102210001449091F206A096801F46041884225D9E0
:10222000206A01F01FFD08B1012062E60D48001F81
:10223000006820F46040216A08430A49091F0860C9
:102240000846006820F07F404FF07F4292FAA2F2E9
:10225000B2FA82F2E169914008430249091F08601D
:1022600023E000000838024000004742FC480068B4
:1022700020F46040216A0843F94908600846006874
:1022800020F07F404FF07F4292FAA2F2B2FA82F23F
:10229000E16991400843F2490860206A01F0E2FCDC
:1022A00018B1012025E6A5E01FE04FF4604191FA46
:1022B000A1F1B1FA81F1206AC840401C012181409E
:1022C000C803E749091D096801F0F001F02292FAFC
:1022D000A2F2B2FA82F2D140E24A515CC840E2492D
:1022E00008600F20FFF794F984E0A069F0B30120A3
:1022F000010291FAA1F1B1FA81F1DC4A42F8210020
:10230000FFF75EF9054606E0FFF75AF9401B022881
:1023100001D90320EDE52020010191FAA1F1B1FAE4
:1023200081F108430121B1EB601F03D1CC48001FAC
:10233000006802E0CA483030006820210A0192FAA1
:10234000A2F2B2FA82F2114301F01F020121914080
:1023500008400028D8D0C248006820F46040216AB4
:102360000843BF4908600846006800E00DE020F01F
:102370007F404FF07F4292FAA2F2B2FA82F2E16914
:1023800091400843B649086034E000204FF4807162
:1023900091FAA1F1B1FA81F1B44A42F82100FFF7B4
:1023A0000FF9054606E0FFF70BF9401B022801D99B
:1023B00003209EE52020010191FAA1F1B1FA81F1FB
:1023C00008430121B1EB601F03D1A548001F00683D
:1023D00002E0A3483030006820210A0192FAA2F2FC
:1023E000B2FA82F2114301F01F020121914008402C
:1023F0000028D8D1207800F0080008286ED1606944
:10240000A8B3012090FAA0F1B1FA81F1974A02EB4A
:102410008101C1F88006FFF7D3F8054606E0FFF713
:10242000CFF8401B022801D9032062E54020022199
:1024300091FAA1F1B1FA81F108430121B1EB601FDA
:1024400003D18748001F006802E0854830300068EB
:102450004021022292FAA2F2B2FA82F2114301F072
:102460001F020121914008400028D8D036E0FFE744
:102470000021012090FAA0F0B0FA80F07B4A02EB34
:102480008000C0F88016FFF79BF8054606E0FFF7CE
:1024900097F8401B022801D903202AE54020022199
:1024A00091FAA1F1B1FA81F108430121B1EB601F6A
:1024B00003D16B48001F006802E0694830300068B3
:1024C0004021022292FAA2F2B2FA82F2114301F002
:1024D0001F020121914008400028D8D1207800F047
:1024E0000400042875D100265D482030006800F003
:1024F000805080B900BF5A482030006840F08050BA
:102500005749203108600846006800F0805000906C
:1025100000BF00BF01265648006800F48070B0B9C3
:102520005348006840F4807051490860FFF748F84C
:10253000054606E0FFF744F8401B642801D9032054
:10254000D7E44B48006800F480700028F2D000BF48
:10255000A068012808D142483030006840F48070FB
:102560003F49303108602DE0A06868B93C48303000
:10257000006820F480703A493031086008460068ED
:1025800020F4806008601DE0A06805280DD1344863
:102590003030006840F480603149303108600846CE
:1025A000006840F4807008600CE02D48303000680E
:1025B00020F480702A49303108600846006820F411
:1025C0008060086000BFA06870B3FEF7F9FF0546A1
:1025D00009E06AE0FEF7F4FF401B41F288318842CF
:1025E00001D9032085E44020C10091FAA1F1B1FA9C
:1025F00081F108430121B1EB601F03D11848001F8E
:10260000006802E01648303000684021CA0092FAA3
:10261000A2F2B2FA82F2114301F01F0201219140AD
:1026200008400028D6D035E0FEF7CAFF054608E08E
:10263000FEF7C6FF401B41F28831884201D90320D2
:1026400057E44020C10091FAA1F1B1FA81F10843A9
:102650000121B1EB601F0DD10148001F00680BE0A4
:1026600004380240AD5C0008000000200000474232
:10267000007000406C4800684021CA0092FAA2F243
:10268000B2FA82F2114301F01F0201219140084089
:102690000028CDD1012E07D163481038006820F002
:1026A000805061491039086000BF606AF0B35E482D
:1026B0002C38006800F00C000C287AD0606A0228E0
:1026C00079D100204FF0807191FAA1F1B1FA81F136
:1026D000564A42F82100FEF773FF054606E0FEF772
:1026E0006FFF401B022801D9032002E420200105CE
:1026F00091FAA1F1B1FA81F108430121B1EB601F18
:1027000003D149483438006801E047480068202177
:102710000A0592FAA2F2B2FA82F2114301F01F0204
:102720000121914008400028D9D100E07AE0D4E9A5
:102730000A010843216B08433B492C39096821F4FD
:102740007D01084338492C3908600120010691FABF
:10275000A1F1B1FA81F1354A42F82100FEF730FFCC
:10276000054606E0FEF72CFF401B022801D9032096
:1027700009E42020010591FAA1F1B1FA81F10843A1
:102780000121B1EB601F03D127483438006801E014
:102790002548006820210A0592FAA2F2B2FA82F2D4
:1027A000114301F01F020121914008400028D9D0B7
:1027B00038E035E0FFE700214FF0807090FAA0F09C
:1027C000B0FA80F0194A42F82010FEF7F9FE0546EB
:1027D00006E0FEF7F5FE401B022801D9032058E46D
:1027E0002020010591FAA1F1B1FA81F108430121FC
:1027F000B1EB601F03D10C483438006801E00A488F
:10280000006820210A0592FAA2F2B2FA82F211437C
:1028100001F01F020121914008400028D9D101E0B8
:10282000012036E4002034E43438024000004742FE
:1028300002460023106800F1500303EB810318687F
:10284000704710B50023046804F1500303EB8103C3
:102850001A6010BD2DE9F04104460D4616460027CA
:1028600000BF207F012802D10220BDE8F0810120B5
:10287000207700BF0220607700BFCA20216848622D
:1028800053202168486200BF2068806800F480609F
:10289000E0B1FEF795FE074612E0FEF791FEC01B81
:1028A000B0F57A7F0CD900BFFF202168486200BFD5
:1028B0000320607700BF0020207700BF0320D4E70B
:1028C0002068C068C0F380000028E6D120688068D6
:1028D00020F48060216888602068C06800F0800073
:1028E00060F490602168C860FEF76AFE074612E057
:1028F000FEF766FEC01BB0F57A7F0CD900BFFF2043
:102900002168486200BF0320607700BF0020207765
:1029100000BF0320A9E72068C068C0F3800000283A
:10292000E6D0206845612068806820F007002168B3
:10293000886020688068304321688860104800689B
:1029400040F480100E4908600D480830006840F4DB
:1029500080100B49083108602068806840F480408E
:102960002168886000BFFF202168486200BF012005
:10297000607700BF0020207700BF00BF75E7000030
:10298000000401407047000010B504462068C0688C
:10299000C0F3802050B12046FFF7F4FF2068C068E4
:1029A00000F0800060F490602168C8604FF48010EF
:1029B000024908600120607710BD00001404014046
:1029C00010B504460CB9012010BD607F20B900206D
:1029D0002077204600F04EF80220607700BFCA2022
:1029E0002168486253202168486200BF204601F0F8
:1029F000A7F940B100BFFF202168486200BF042052
:102A000060770120E0E72068806819490840216864
:102A100088602169606808436169084321688968A2
:102A20000843216888602168E068086120680169BE
:102A3000208941EA0040216808612068C06820F0D0
:102A400080002168C8602068006C20F48020216824
:102A500008642068006CA16908432168086400BF0D
:102A6000FF202168486200BF012060770020ABE7AB
:102A7000BFFF8FFF10B504460B492068884212D172
:102A80000120810591FAA1F1B1FA81F1074A02EB27
:102A90008101C1F88006002211460320FEF767FE7F
:102AA0000320FEF757FE10BD0028004000004742FB
:102AB0002DE9F04104460D461646002700BF207F51
:102AC000012802D10220BDE8F0810120207700BF5B
:102AD000022060774EB9687800F01000102804D109
:102AE000687800F0EF000A30687086B9E87801F085
:102AF0001AF90304687801F016F943EA0023A8786C
:102B000001F011F90343287843EA403711E068786F
:102B100001F0FEF80746A87801F0FAF80746E878D1
:102B20000004697840EA0120A9780843297840EA3E
:102B3000413700BFCA20216848625320216848629B
:102B400000BF204601F0FCF860B100BFFF20216803
:102B5000486200BF0420607700BF0020207700BFDC
:102B60000120B0E713483840216848602068C068F9
:102B700020F080002168C860204600F0B3F860B102
:102B800000BFFF202168486200BF0420607700BFBB
:102B90000020207700BF012095E700BFFF202168BB
:102BA000486200BF0120607700BF0020207700BF8F
:102BB00000BF88E73FFFFF002DE9F04104460D46C6
:102BC0001646002700BF207F012802D10220BDE861
:102BD000F0810120207700BF02206077CEB9206805
:102BE000806800F0400000B102E00020E87000BF03
:102BF000287801F098F80304687801F094F843EA23
:102C00000023A87801F08FF80343E87843EA0047EF
:102C100016E02068806800F0400020B1287801F0BC
:102C200077F8074602E00020E87000BF287800042B
:102C3000697840EA0120A9780843E97840EA014729
:102C400000BFCA202168486253202168486200BF43
:102C5000204601F075F860B100BFFF20216848628E
:102C600000BF0420607700BF0020207700BF012054
:102C7000ADE71B483840216808602068806820F470
:102C8000802021688860D5E90101084321688968AE
:102C90000843216888602068C06820F080002168AF
:102CA000C860204600F01EF860B100BFFF20216818
:102CB000486200BF0420607700BF0020207700BF7B
:102CC000012084E700BFFF202168486200BF012087
:102CD000607700BF0020207700BF00BF77E70000CB
:102CE0007F7F7F0070B5044600252068C06820F013
:102CF000A0002168C860FEF763FC054607E0FEF708
:102D00005FFC401BB0F57A7F01D9032070BD2068BD
:102D1000C06800F020000028F1D00020F6E7042869
:102D200008D14FF0E021096941F004014FF0E022A1
:102D3000116107E04FF0E021096921F004014FF033
:102D4000E0221161704770B504462546681EB0F157
:102D5000807F01D301200FE0681E4FF0E021486121
:102D60000F214FF0FF3000F0B9FD00204FF0E021BF
:102D7000886107200861002070BD704710B50446C7
:102D800020680069C0F34000D8B12068C068C0F373
:102D90004000B0B16FF00200216808610120207589
:102DA0002068806900F0030018B12046FFF7E5FFB6
:102DB00005E0204600F08BF8204600F089F800205E
:102DC000207520680069C0F38000D8B12068C06811
:102DD000C0F38000B0B16FF00400216808610220E8
:102DE00020752068806900F4407018B12046FFF714
:102DF000C4FF05E0204600F06AF8204600F068F8BD
:102E00000020207520680069C0F3C000D8B1206898
:102E1000C068C0F3C000B0B16FF00800216808615D
:102E2000042020752068C06900F0030018B1204616
:102E3000FFF7A3FF05E0204600F049F8204600F028
:102E400047F80020207520680069C0F30010D8B151
:102E50002068C068C0F30010B0B16FF010002168A6
:102E60000861082020752068C06900F4407018B11E
:102E70002046FFF782FF05E0204600F028F82046B4
:102E800000F026F8002020752068006900F001009D
:102E900058B12068C06800F0010030B16FF0010047
:102EA00021680861204600F014F820680069C0F32A
:102EB000801058B12068C068C0F3801030B16FF046
:102EC000400021680861204600F004F810BD7047FA
:102ED0007047704770477047014691F83900704756
:102EE000F8B50446002500262068006800F00105BA
:102EF0002068C06800F4807625B11EB1E06B40F018
:102F00000100E06320680068C0F340052068406964
:102F100000F0010625B11EB1E06B40F00400E06353
:102F200020680068C0F3800525B11EB1E06B40F059
:102F30000200E06320680068C0F3C00525B11EB13F
:102F4000E06B40F00800E06320680068C0F34015C3
:102F50002068C06800F020061DB116B1204601F0BF
:102F6000A3F920680068C0F3C0152068C06800F0AD
:102F700080061DB116B1204601F0A0FB2068006854
:102F8000C0F380152068C06800F040061DB116B17E
:102F9000204601F071F9E06B70B100BF2068006855
:102FA000009020684068009000BF00BF012084F8B6
:102FB00039002046FFF78FFFF8BD10B504460CB965
:102FC000012010BDA06900B100E000BF94F83900F5
:102FD00028B9002084F83800204600F041F802208B
:102FE00084F839002068C06820F400502168C86067
:102FF000204601F0B7F92068006920F4904021686C
:1030000008612068406920F02A0021684861206832
:10301000C06840F400502168C8600020E0630120CF
:1030200084F839000020CCE710B50446094920682F
:1030300088420DD10848006820F4802006490860C5
:103040004FF440610548FEF73DF92720FEF774FB79
:1030500010BD000000480040243802400004024037
:1030600010B586B004461D492068884233D100BFA0
:103070001B48006840F002001949086008460068D3
:1030800000F00200009000BF00BF00BF14480830ED
:10309000006840F480201249083108600846006842
:1030A00000F48020009000BF00BF4FF4406001900A
:1030B000022002900390032004900720059001A9AC
:1030C0000848FEF78FF92720FEF744FB002211463F
:1030D0002720FEF74CFB06B010BD00000048004062
:1030E0001C3802400004024030B50346002493F827
:1030F0003940012C01D0122C37D101B10AB901207D
:1031000030BD00BF93F83800012801D10220F7E755
:10311000012083F8380000BF99629A85DA85002083
:10312000D86393F83900122803D1322083F839008C
:1031300002E0222083F8390000BF002083F8380025
:1031400000BF1868C06840F480701D68E8601868A7
:10315000406940F001001D6868611868C06840F06F
:1031600020001D68E8600020CAE70220C8E70000D0
:103170000E4A0168914217D10D494988642903DB41
:1031800000210B4A518070470A490A7808494B8848
:10319000091DCA54091F4988491C054A518000224B
:1031A00003494B88091DCA5400BFECE700480040A2
:1031B000F40000200A000020704710B504462046A5
:1031C00000F04EF810BD10B5044620684068C0F30A
:1031D000402058B12068806800F0010030B16FF0E5
:1031E0000100216888602046FFF7E7FF10BD10B599
:1031F00004460CB9012010BD204600F00FF8E0682D
:1032000040F0800021680860616820690843A16877
:103210000843216848600020EDE7000038B5044607
:103220000D492068884215D100BF0C48006840F461
:1032300000600A4908600846006800F400600090D9
:1032400000BF00BF002211461046FEF790FA002092
:10325000FEF780FA38BD0000002C00402438024000
:1032600001460A68C86810600020704700BFFEE78A
:1032700010B500F019F810BD70B505460C4600F009
:1032800067F8782000F03CF800F09EF8284600F03F
:1032900037F800F099F8204600F032F800F094F882
:1032A00000F074F870BD000000B587B000BF104892
:1032B000006840F002000E4908600846006800F00F
:1032C0000200019000BF00BFC020029001200390C7
:1032D00004900320059002A90648FEF783F8012018
:1032E000054908600549C1F8980207B000BD000013
:1032F0001C380240000402409C8240420080404250
:10330000104A126822F440420E4B1A601A461268A4
:1033100042F480421A6000220B4B1A6000210EE03A
:10332000C209094B1B1D1A604206100E0122074BF1
:10333000C3F898220022044B1A604A1CD1B2082913
:10334000EEDB704700040240988240420080404219
:103350000B48006820F440400949086008460068AE
:1033600040F4804008600120064908600649C1F821
:1033700098020020034908600349C1F89802704789
:10338000000402409C824042008040420B4800689A
:1033900020F44040094908600846006840F4804035
:1033A00008600020064908600649C1F89C02012017
:1033B000034908600349C1F89C02704700040240B9
:1033C000988240420080404200B5002210480068C8
:1033D00020F440400E49086008460068086001205B
:1033E0000C4908600C49C1F8980207E0501CC2B2B1
:1033F000FA2A03DDFFF7CAFF012000BD0548803827
:1034000000680028F2D10349091F086000BFF4E7F3
:10341000000402409C8240420080404200B587B0D8
:10342000012202211148FEF7C5F800BF10480068CC
:1034300040F004000E4908600846006800F00400EF
:10344000019000BF00BF02200290012003900020E5
:1034500004900220059002A90448FDF7C3FF012251
:1034600002210248FEF7A6F807B000BD000802409E
:103470001C38024010B501F033FF00F061FA10482B
:103480000078022806D101230EA20021084600F090
:1034900033FB05E001230CA20021084600F02CFBC1
:1034A00001230AA21946002000F026FB012309A2ED
:1034B0000221002000F020FB01F03CFF10BD0000C5
:1034C0002C0000204F4C0000464C0000434D443A75
:1034D000000000005263763A0000000070B596B01C
:1034E00005460E4605241C210FA8FCF784FE342255
:1034F000324902A8FCF766FE0FA9284600F0DEFC60
:10350000314602A8FCF782FE2DA102A8FCF77EFE40
:103510000FA902A8FCF77AFE2AA102A8FCF776FE02
:1035200046E0FFF7A7FF28A001F0A6F900F0A8FCED
:1035300002A801F057F92BE026484088D0B1254970
:10354000091D25A000F0F4FCA0B1012324A2032151
:103550000C2000F0D1FA00F0A3FC012000F04EF89E
:10356000284600F09FF84FF47A7002F02FF82046BA
:1035700016B070BD012000901648B0F86A200423F0
:1035800003210C2000F079FA4FF4967002F01EF837
:103590001048B0F86A0040F6B8318842CCDD12A07D
:1035A00001F0A2FD4FF47A7002F010F8601EC4B270
:1035B000002CB6D100F074FC2046D9E72066000844
:1035C0002C0000000D0A00004D53472053656E6427
:1035D0002E2E2E00F40000200D0A4F4B0D0A000085
:1035E00020202020000000002D204F564552544935
:1035F0004D45202D0000000000BFFEE72DE9F843F7
:10360000804602240325002601F06AFE3FE024489C
:10361000005D0D280AD12248611C405C0A2805D1B2
:10362000A01C84B2681CC5B2002630E01C48005DB6
:10363000202807DB1A48005D7E2803DC1848005D5F
:10364000009001E03F200090B8F1000F05D006EB9C
:10365000460040000C30C7B20BE0032D05D106EB4D
:10366000460040001E30C7B203E006EB46004006AD
:10367000070E782F07DC072D05DC01236A46294653
:10368000384600F039FA701CC6B2601C84B2044897
:10369000001F4088A042BADC01F04CFEBDE8F88370
:1036A000F800002010B5044601F01AFE012322465E
:1036B0000721002000F020FA01F03CFE10BD0000C0
:1036C00030B58DB0054603241422324908A8FCF712
:1036D00079FD1C222F49143101A8FCF773FD2946FE
:1036E00001A8FCF793FD2CA101A8FCF78FFD4AE08F
:1036F000FFF7C0FE2BA001F0BFF800F0C1FB08A847
:1037000001F070F84FF47A7001F060FF28E029486A
:103710004088B8B12749091D01A800F009FC88B10B
:10372000012325A203210C2000F0E6F900F0B8FBEC
:103730000120FFF763FF4FF47A7001F047FF204646
:103740000DB030BD012000901A48B0F86A20042363
:1037500003210C2000F091F94FF4967001F036FF30
:103760001448B0F86A0040F6B8318842CFDD14A0A2
:1037700001F0BAFC4FF47A7001F028FF284600F0FF
:1037800027F8601EC4B2002CB2D100F089FB20469D
:10379000D6E700008C6500080D0A0D0A4F4B0D0A94
:1037A000000000004E42414E44204765745365744A
:1037B0002E2E2E00F40000202020202000000000EB
:1037C0002D204F56455254494D45202D00000000F4
:1037D00030B585B0054603242C4B0FCBCDE9032330
:1037E000CDE90101294601A8FCF710FD28A101A897
:1037F000FCF70CFD43E0FFF73DFE26A001F03CF88E
:1038000000F03EFB01A800F0EDFF28E025484088CD
:10381000B8B12449091D24A000F08AFB88B1012316
:1038200023A203210C2000F067F900F039FB0120EE
:10383000FFF7E4FE4FF47A7001F0C8FE204605B0B1
:1038400030BD012000901748B0F86A2004230321FE
:103850000C2000F012F94FF4967001F0B7FE1148F9
:10386000B0F86A0041F288318842CFDD12A001F041
:103870003BFC4FF47A7001F0A9FE601EC4B2002C2C
:10388000B9D100F00DFB2046D9E70000BC65000867
:103890000D0A00004E42414E44205365742E2E2ED8
:1038A00020202000F40000200D0A4F4B0D0A0000DC
:1038B00020202020000000002D204F564552544962
:1038C0004D45202D000000007047000002480068B0
:1038D000C0F30220704700000CED00E010B5002896
:1038E00007DA0A07140E054A00F00F031B1FD45411
:1038F00003E00A07130E024A135410BD18ED00E04E
:1039000000E400E03EB50BA538CD8DE83800062276
:1039100000BF0A23B1FBF3F403FB14131DF803509B
:103920001346541EE2B2C5540A23B1FBF3F1002A38
:10393000EFD13EBD303132333435363738390000BF
:1039400010B5002000F001F810BD70B50646002447
:1039500015E004F1B001C8B200F036FF002000F01D
:1039600033FF102000F030FF002504E0304600F067
:1039700032FF681CC5B2802DF8DB601CC4B2082C75
:10398000E7DB70BD10B54FF47A70FDF78DFCAE200B
:1039900000F01AFF202000F017FF102000F014FFA5
:1039A000B02000F011FFC82000F00EFF002000F052
:1039B0000BFF102000F008FF402000F005FF8120E1
:1039C00000F002FFFF2000F0FFFEA12000F0FCFE4F
:1039D000A62000F0F9FEA82000F0F6FE3F2000F03F
:1039E000F3FEA42000F0F0FED32000F0EDFE002056
:1039F00000F0EAFED52000F0E7FEF02000F0E4FE43
:103A0000D92000F0E1FE222000F0DEFEDA2000F0F6
:103A1000DBFE122000F0D8FEDB2000F0D5FE2020D7
:103A200000F0D2FE8D2000F0CFFE142000F0CCFE7E
:103A3000AF2000F0C9FEFFF783FF10BD10B58D2049
:103A400000F0C2FE102000F0BFFEAE2000F0BCFE71
:103A500010BD70B504460D4605F1B001C8B200F0C6
:103A6000B3FE102141EA141000F0AEFE04F00F0185
:103A700041F0010000F0A8FE70BD2DE9FE4F804628
:103A8000894617461D46DDF830A04FF0000B002098
:103A9000009001900290002421E0281B401EC1B23A
:103AA0000A2000F0F7FFB7FBF0F00A21B0FBF1F2BB
:103AB00001FB1206BBF1000F09D1681EA04206DD12
:103AC0001EB920200DF8040007E04FF0010B06F1AD
:103AD0003000C0B20DF8040000BF601CC4B2AC429C
:103AE000DBDB00200DF8040053466A464946404699
:103AF00000F002F8BDE8FE8F2DE9F0470646894642
:103B000017469A464FF0000800240025BAF1010F2D
:103B100003D0BAF1020F5ED125E020E0785D2038B5
:103B200000F0FF087E2E04DD002609F1010000F000
:103B3000FF0949463046FFF78CFF002409E008EBF7
:103B40004801264A02EB4101085D00F044FE601C7A
:103B5000C4B2062CF3DBB01DC6B2681CC5B2785DDA
:103B60000028DBD137E032E0785D203800F0FF0834
:103B7000782E04DD002609F1010000F0FF09494616
:103B80003046FFF766FF002407E004EB0811144AF3
:103B9000505C00F020FE601CC4B2082CF5DB09F17B
:103BA0000100C1B23046FFF754FF002408E004EBE7
:103BB000081108310A4A505C00F00DFE601CC4B2C6
:103BC000082CF4DB06F10800C6B2681CC5B2785DAB
:103BD0000028C9D100BF00BFBDE8F087C55C000860
:103BE000ED5E000808B500BF1349096841F00801FF
:103BF000114A11601146096801F00801009100BFE7
:103C000000BF00BF1146096841F004011160114670
:103C1000096801F00401009100BF00BF00BF114618
:103C2000096841F0040111601146096801F00401BE
:103C3000009100BF00BF08BD1C3802400849096858
:103C400021F00801064A11601146096821F00401BB
:103C500011601146096821F00401116070470000ED
:103C60001C38024018B50246002300212548006890
:103C700000F0F00050BB23481C30006800F080507A
:103C800020B12148006800F4C05318E000BF1D486F
:103C90001C30006840F080501A4C1C3420602046D4
:103CA000006800F08050009000BF00BF1648006818
:103CB00000F4C0532046006820F080502060B3F527
:103CC000C05F03D1B2F5404F00D1012100BF0129EF
:103CD00005D10E48006840F004000C4C20600B48F1
:103CE000006820F001000843084C206000BF204617
:103CF000006800F00100884201D0012018BD0020BA
:103D0000FCE700000838024000700040003C024020
:103D1000014600BF080900EB8000420001F00F00DF
:103D20001044C0B270470146002203E0521CA1F1CA
:103D30000A00C1B20A29F9DA100741EA1060704797
:103D400070B5044600252068C06800F04000A0B9A6
:103D5000681E2168C860FDF733FC054607E0FDF7E3
:103D60002FFC401BB0F57A7F01D9032070BD20687D
:103D7000C06800F040000028F1D00020F6E7000005
:103D80001FB504462A482B490860002048607F215F
:103D900028488160FF21C16000210161416181618A
:103DA000FEF70EFE18B12B2123A0FCF792FF002195
:103DB0002048FEF73DFD43F2F22188422CD000203E
:103DC0008DF804008DF805008DF806000290039030
:103DD000012201A91748FEF7EFFE18B1382116A0FD
:103DE000FCF777FF01208DF800008DF801008DF8B9
:103DF000020000208DF80300012269460D48FEF7FD
:103E000057FE18B142210CA0FCF763FF43F2F222E7
:103E100000210848FEF715FD042221460548FEF75B
:103E200019FD18B14C2104A0FCF753FF1FBD000081
:103E300000280040980100202E2E5C4253505C4C1C
:103E40004F57504F5745525C6C6F77706F77657264
:103E50002E63000010B50248FEF796FD10BD00006D
:103E600098010020054991F8681031B10349B1F873
:103E70006A100144014AA2F86A107047F400002059
:103E800010B501F02DFA0120044981F868000020E6
:103E9000A1F86A00488001F04DFA10BDF40000203E
:103EA00010B501F01DFA0020034981F86800A1F85F
:103EB0006A0001F03FFA10BDF40000202DE9F04344
:103EC00085B00646884600274546B946142213A108
:103ED0006846FCF777F900BF18E0F45D2046E1176B
:103EE00004EB11714FEA21191DF8090028706D1CAF
:103EF0002046E11704EB11710911A4EB011101F047
:103F0000FF091DF8090028706D1C7F1CF05D00285A
:103F1000E3D1287005B0BDE8F083000030313233C2
:103F200034353637383941424344454600000000B5
:103F300030B502460024002300BF105DCD5CA842CE
:103F400001D0002030BDC85C08B1105D08B9012067
:103F5000F8E7601C84B2581C83B2EEE710B500206D
:103F600022490870FDF73AFB00F0EEF8FFF780F900
:103F7000FFF708FDFFF7E4FC01231DA2002108461E
:103F8000FFF7BAFD01231BA219460020FFF7B4FD7D
:103F900001231AA202210020FFF7AEFD012319A27E
:103FA00019461E20FFF7A8FD4FF47A70FDF77CF943
:103FB0004FF4165001F01AF9FCF74CFBFCF702FA2B
:103FC0004FF4C0727F21412000F0DAFB012310A2E0
:103FD00019461E20FFF790FD4FF47A70FDF764F943
:103FE000FFF71CFA3C20FFF7CBFE10BD2C00002091
:103FF000464C0000434D443A000000005263763ABC
:104000000000000053797320496E69742E2E2E0033
:1040100053797320496E6974656420202000000084
:1040200010B5FDF7D3FA114890F8680090B10F4829
:10403000B0F86A00401C0D49A1F86A000846B0F8C3
:104040006A004EF66021884208DD00200749A1F889
:104050006A0003E000200549A1F86A0001F0ECFCC9
:10406000012801D001F09EFC10BD0000F4000020EA
:1040700010B5FFF7E3FC012204212E48FDF79AFA60
:10408000012291022C48FDF795FA002210212A48BE
:10409000FDF790FA00224FF480612848FDF78AFA74
:1040A00000224FF400612548FDF784FAFDF7C4FAB9
:1040B000FDF7BEFB2248006840F008002049086078
:1040C00000BFCA201F490968486253201D4909687A
:1040D000486200BF1B480068C06800F0800060F4C0
:1040E000906018490968C86016480068806840F404
:1040F000806014490968886012480068C06800F050
:10410000800060F490600F490968C86000BFFF201C
:104110000C490968486200BF0948006840F0040083
:10412000074908600846006840F004000860FDF791
:104130008BFB10BD000C024000080240000402404E
:10414000007000409801002010B596B02748006824
:1041500020F4C05040F40060244908601620099003
:1041600001200B900C9010200D9001200F9000204A
:1041700010904FF4204011900020129009A8FDF7F4
:1041800079FE18B158211AA0FCF7A3FD0F20049066
:1041900000200590069007900890002104A8FDF7E4
:1041A00069FC18B1662112A0FCF793FD0120019073
:1041B0000004029001A8FDF75BFB18B16C210CA074
:1041C000FCF787FDFDF7CAFD4FF47A71B0FBF1F4FF
:1041D0002046FEF7B8FD0420FEF7A1FD00220F21C6
:1041E000501EFDF7C4FA16B010BD0000007000406C
:1041F0002E2E5C53595354454D5C7379735C73791F
:10420000732E63001448006840F4807012490860FF
:10421000114808300068114908400F49083108600A
:104220000D4800680E4908400B49086008460068C0
:1042300020F48020086008480830006820F47D00E1
:104240000549083108600020091D08604FF0006032
:104250000449086070470000003802400CC0FF8825
:10426000FEFFFEEE08ED00E010B50248FEF786FD09
:1042700010BD00006001002010B504462068C06831
:1042800020F040002168C86094F83900322803D13A
:10429000222084F8390002E0012084F83900204609
:1042A000FEF78AFF002010BD70B50446002694F882
:1042B0003960222E01D0322E52D1A068B0F5805F35
:1042C00013D1A56A206940B920684068C0F308008E
:1042D0002880A06A801CA06219E020684068C0B2F3
:1042E0002880A06A401CA06211E0206938B92068CB
:1042F0004068C1B2A26A501CA062117007E0206839
:10430000406800F07F01A26A501CA0621170E08D2D
:10431000401E80B2E08508BB2068C06820F0200005
:104320002168C86094F83900322803D1122084F83B
:1043300039000EE02068C06820F480702168C860F1
:104340002068406920F0010021684861012084F85C
:1043500039002046FEF70CFF002070BD0020FCE76E
:104360000220FAE72DE9F0410446002520680069A3
:1043700020F44050E1680843216808612169A06881
:10438000084361690843E16940EA01052068C068A3
:1043900049F20C61884328432168C860206840695D
:1043A00020F44070A169084321684861E069B0F5D4
:1043B000004F7CD1C049206888425DD1FDF7EAFCFE
:1043C00000EBC00101EB001061684900B0FBF1F0A7
:1043D0006421B0FBF1F00601FDF7DCFC00EBC0014D
:1043E00001EB001061684900B0FBF1F7FDF7D2FC6A
:1043F00000EBC00101EB001061684900B0FBF1F077
:104400006421B0FBF1F000EBC00101EB0010A7EB61
:104410008000322101EBC0006421B0FBF1F000F01C
:10442000F80006EB4006FDF7B5FC00EBC00101EB20
:10443000001061684900B0FBF1F7FDF7ABFC00EB41
:10444000C00101EB001061684900B0FBF1F064218C
:10445000B0FBF1F000EBC00101EB0010A7EB800016
:10446000322101EBC0006421B0FBF1F000F0070045
:104470003044216888601CE1FDF776FC00EBC00148
:1044800001EB001061684900B0FBF1F06421B0FB62
:10449000F1F00601FDF768FC00EBC00101EB001034
:1044A00061684900B0FBF1F7FDF75EFC00E043E016
:1044B00000EBC00101EB001061684900B0FBF1F0B6
:1044C0006421B0FBF1F000EBC00101EB0010A7EBA1
:1044D0008000322101EBC0006421B0FBF1F000F05C
:1044E000F80006EB4006FDF73FFC00EBC00101EBD6
:1044F000001061684900B0FBF1F7FDF735FC00EBF7
:10450000C00101EB001061684900B0FBF1F06421CB
:10451000B0FBF1F000EBC00101EB0010A7EB800055
:10452000322101EBC0006421B0FBF1F000F0070084
:10453000304421688860BCE05F49206888425CD1D3
:10454000FDF728FC00EBC00101EB00106168890059
:10455000B0FBF1F6FDF71EFC00EBC00101EB001013
:1045600061688900B0FBF1F06421B0FBF1F000EB71
:10457000C00101EB0010A6EB8000322101EB00101E
:104580006421B0FBF1F000F0F006FDF703FC00EB56
:10459000C00101EB001061688900B0FBF1F06421FB
:1045A000B0FBF1F006EB0016FDF7F4FB00EBC001E9
:1045B00001EB001061688900B0FBF1F7FDF7EAFB41
:1045C00000EBC00101EB001061688900B0FBF1F065
:1045D0006421B0FBF1F000EBC00101EB0010A7EB90
:1045E0008000322101EB00106421B0FBF1F000F0FB
:1045F0000F003044216888605BE0FDF7B5FB00EBFD
:10460000C00101EB001061688900B0FBF1F6FDF715
:10461000ABFB00EBC00101EB001061688900B0FB4F
:10462000F1F06421B0FBF1F000EBC00101EB0010F0
:10463000A6EB8000322101EB00106421B0FBF1F009
:1046400000F0F006FDF790FB00EBC00101EB00105D
:1046500061688900B0FBF1F06421B0FBF1F006EB7A
:104660000016FDF781FB00EBC00101EB0010616853
:104670008900B0FBF1F7FDF777FB00EBC00101EB20
:10468000001061688900B0FBF1F06421B0FBF1F02B
:1046900000EBC00101EB0010A7EB8000322101EB21
:1046A00000106421B0FBF1F000F00F0030442168ED
:1046B0008860BDE8F08100000038014010B5014677
:1046C000002391F83930122B01D0322B2CD188687D
:1046D000B0F5805F0FD10A6A1088C0F308000C683B
:1046E0006060086918B9086A801C086209E0086AF5
:1046F000401C086205E00C6A601C086220780C68A7
:104700006060C88C401E80B2C88458B90868C06810
:1047100020F080000C68E0600868C06840F040004D
:104720000C68E060002010BD0220FCE710B50024FA
:104730000C48FEF7D5FB00BF01E0641C00BF094830
:10474000FEF7CAFB0128F8D100BF002401E0641C79
:1047500000BF012204490348FEF7C6FC0028F6D139
:1047600000BF10BDB40000200A00002000BFFEE71B
:1047700010B50248FEF727FD10BD0000180200200A
:1047800070B506460C4615460848094908600846B3
:1047900045608660C4604FF400710161FEF727FD3B
:1047A00018B11B2103A0FCF794FA70BD002C004047
:1047B000180200202E2E5C4253505C575744475C31
:1047C000777764672E63000010B504462146002009
:1047D000FEF752FD10BD10B5044621464020FEF7FD
:1047E0004BFD10BD014A024900F013B8D148000842
:1047F0000400002002E008C8121F08C1002AFAD1F4
:1048000070477047002001E001C1121F002AFBD150
:1048100070472DE9F04116460F460446002503E097
:104820003946B047641C6D1C20780028F8D1284612
:10483000BDE8F0811AE001210D48FDF7F9FF70B9DC
:104840000C48007802280AD005E04FF4FA6000F026
:10485000BDFEFFF783FBFBF7BFFE0028F5D000206D
:1048600000F0E2FE4FF47A6000F0B0FEE3E70000F3
:10487000980100202C00002010B5044600F030FD07
:104880000123224619461E20FFF736F900F052FD9B
:1048900010BD000001210120094A12680AB1002060
:1048A0000CE0084A12680AB1002007E0064A1368C3
:1048B000064A1268521E934200D10220704700003F
:1048C000E00200206C0000200803002058000020B7
:1048D00000BF054A126802F04002002AF9D0C2B2B5
:1048E000014B1B1D1A607047004800405CE02F48D8
:1048F000007805280FDAFCF715FA2D492B4A1278B3
:1049000021F8120029480078401C284908706420CA
:1049100000F05CFE48E027480078022805D001211D
:104920002548FDF785FF01283AD10521204800F0F0
:104930003BFC1F498888FBF775FC20490860084646
:104940000068FBF774FC044621461D48FEF7DAFFB9
:104950000220184908701BA11948FEF7BFFD60B975
:1049600019A0FEF79FFEFCF763FF00220121124809
:10497000FDF767FFFCF74EFF08E0FCF759FF012247
:1049800011460D48FDF75DFFFCF744FF10A0FEF750
:1049900089FE4FF4FA6000F019FEFFF769FB03E0AF
:1049A0004FF4FA6000F012FEA1E700004100002081
:1049B0000C0200202C000020980100204400002060
:1049C00038000020380000004552524F52000000CD
:1049D00020456E746572696E67205374616E6462FF
:1049E000792E2E2E0000000030E01948007858B9CA
:1049F00000224FF480611748FCF7DCFD01220421FE
:104A00001548FCF7D7FD1DE01148007801280AD1B0
:104A1000002204211048FCF7CDFD012291020D482F
:104A2000FCF7C8FD0EE00A48007802280AD10022EF
:104A300004210948FCF7BEFD00224FF480610548BF
:104A4000FCF7B8FD4FF47A7000F0C0FDCDE7000030
:104A50002C00002000080240000C02401CB5FFF7AB
:104A60007DFA0748012100232822CDE9001005A185
:104A7000074800F0B1FF00F051FE00201CBD00000F
:104A80001C00002073746172745F7461736B0000AA
:104A90000551000810B50246012000E050430B000C
:104AA000A1F10104E1B2F9D110BD00002DE9F041FE
:104AB00005460E461C4807681C480068001D00F0AB
:104AC000C5FB50B91948006890F82C1001208840A7
:104AD00017490968814316480160681C38B936B126
:104AE00012480168091D134800F0EEFB1AE07C191A
:104AF0000E4800684460BC4207D20C480168091D9A
:104B00000D48006800F0C6FB0CE008480168091D6C
:104B10000A48006800F0BEFB09480068844201D2E0
:104B200007480460BDE8F0815C00002048000020D8
:104B30006000002008030020500000204C000020EE
:104B40007800002010B5044600F0CAFB2348006836
:104B5000401C224908602248006840B9204804608F
:104B60000846006801280DD100F06CF90AE01D48E4
:104B7000006838B91A480068C06AE16A884201D8FA
:104B80001748046018480068401C1749086094F8EA
:104B90002C10012088401549096808431349086012
:104BA000E16A01EB8101124A02EB8100211D00F054
:104BB0008BFB00F0BFFB0B48006868B10848006839
:104BC000C06AE16A884207D24FF080500949086004
:104BD000BFF34F8FBFF36F8F10BD00005800002050
:104BE00048000020640000207400002060000020C5
:104BF0002C02002004ED00E010B516E000F070FB80
:104C00000C48C068C468201D00F020FB0A480068FA
:104C1000401E0949086009480068401E07490860AD
:104C200000F088FB204600F00BF8044800680028DC
:104C3000E4D110BDF40200205800002054000020F0
:104C400010B50446206B00F093FB204600F090FB6B
:104C500010BD0000002101220C4B1B68012B00D964
:104C600001210B4A1268D26A0AB100200DE0094AFC
:104C70001268012A01D9002007E009B1002004E0F0
:104C8000054A1268054B1B68D01A70476000002067
:104C9000480000202C020020780000205C0000204A
:104CA00030B54FF44063174800F007042CB1C01D25
:104CB00020F00700134C041B1B1B0246124C226001
:104CC0000024114D6C60D018083820F007000F4CFC
:104CD000206000240D4D2D686C600C4D2D682C60FB
:104CE0001146441A4C60094C24680C60084D4C680D
:104CF0002C60084D4C682C604FF00044064D2C6031
:104D000030BD00001C030020840000208C00002027
:104D100094000020900000209800002000BFFFF7C2
:104D20006BFF19480068012807D94FF080501749D8
:104D30000860BFF34F8FBFF36F8FFFF78BFF044601
:104D4000022C20D300F04EFD11480068114909687B
:104D5000884201D3012000E0002050B900BF50205C
:104D600080F31188BFF34F8FBFF36F8F00BF00BF79
:104D7000FEE7FFF76FFF0446022C02D3204600F047
:104D800075FB00F00DFFCAE72C02002004ED00E0E7
:104D9000780000205C0000202DE9FF5F81460F466F
:104DA0009246DDE90E6B109CAAF10100216B01EB2C
:104DB000800828F0070808F0070008B9012000E083
:104DC000002050B900BF502080F31188BFF34F8FEF
:104DD000BFF36F8F00BF00BFFEE7002507E0795DDE
:104DE00004F134004155785D00B902E06D1C102DCE
:104DF000F5D300BF002143200155072E00D306261E
:104E0000E66266640020A064201D00F040FA04F110
:104E1000180000F03CFA2461C6F10700A06164624A
:104E20000020E06484F8500049464046039A00F0B0
:104E300049F92060BBF1000F01D0CBF80040BDE87C
:104E4000FF9F000010B5002407E004EB84010F4A27
:104E500002EB810000F00EFA641C072CF5D30C481D
:104E600000F008FA0B4800F005FA0B4800F002FACF
:104E70000A4800F0FFF90A4800F0FCF90448094923
:104E8000086004480849086010BD00002C0200209A
:104E9000B8020020CC020020E0020020F402002032
:104EA000080300204C0000205000002010B50146EF
:104EB000164800E0006803688B42FBD30246436853
:104EC00013448B4204D143684C6823444360014639
:104ED0000A464B6813440468A34211D10C4C036882
:104EE0002468A34208D04B680468646823444B607C
:104EF00003681B680B6005E0054B1B680B6001E055
:104F000003680B60884200D0016010BD840000205F
:104F10008C0000200A490968096809B9012100E0EC
:104F2000002121B14FF0FF31064A116006E004492B
:104F30000968C968C868034A416811607047000081
:104F40004C000020780000200E480068401C08B982
:104F5000012000E0002050B900BF502080F31188EC
:104F6000BFF34F8FBFF36F8F00BF00BFFEE700BFDF
:104F7000502080F31188BFF34F8FBFF36F8F00BFB6
:104F800000BFFEE79C0000202DE9F04104464FF0F1
:104F9000000800F027FC4648006808B9FFF780FECB
:104FA00044480068204000286BD1D4B1083404F094
:104FB0000700B0B104F00700C0F10800044404F099
:104FC000070008B9012000E0002050B900BF5020C0
:104FD00080F31188BFF34F8FBFF36F8F00BF00BF07
:104FE000FEE7002C4DD034480068844249D8334E47
:104FF0003046056801E02E462D686868A04202D25E
:1050000028680028F7D12A480068854239D03068DE
:1050100000F10808286830606868001B102819D95A
:105020002F1907F0070008B9012000E0002050B94F
:1050300000BF502080F31188BFF34F8FBFF36F8FF5
:1050400000BF00BFFEE76868001B78606C603846F0
:10505000FFF72CFF184968680968081A16490860A4
:105060000846006816490968884203D21248006859
:10507000134908600F4968680968084368600020A0
:10508000286000F08DFD08F0070008B9012000E05D
:10509000002050B900BF502080F31188BFF34F8F1C
:1050A000BFF36F8F00BF00BFFEE74046BDE8F08151
:1050B0008C00002098000020900000208400002038
:1050C00094000020001F4FF080730360001F21F048
:1050D00001030360001F034B036014380260203893
:1050E00070470000494F000810B5044600F0F8F87A
:1050F0000123224600211220FEF7FEFC00F01AF9DF
:1051000010BD00001CB5044600F0EAF81248042166
:1051100000234622CDE9001010A1144800F05CFCE9
:105120001348032100231422CDE9001011A11548D2
:1051300000F052FC1448022100234622CDE9001061
:1051400012A1174800F048FC1648006800F06CFAFD
:1051500000F0F0F81CBD00001000002067657464CA
:105160006174615F7461736B00000000ED480008BA
:1051700014000020696E64696361746F725F74610A
:10518000736B0000E9490008180000206174746125
:1051900063685F6E6574776F726B5F7461736B00C9
:1051A000354800081C00002070B50246002319E0B5
:1051B000002011E032F81060451C32F81550AE4264
:1051C00008DD451C32F8154032F8106022F81560F1
:1051D00022F81040451CA8B2CD1A6D1E8542E9DCAC
:1051E0005D1CABB24D1E9D42E2DC70BD10B50446A5
:1051F0000D480E4908600846446000218160C16086
:10520000016181610C2141610021C161FDF7D5FE81
:1052100018B1422106A0FBF75CFD01220A490348B0
:10522000FDF762FF10BD000000480040B400002000
:105230002E2E5C53595354454D5C75736172745CEA
:1052400075736172742E63000A00002001460A69BA
:10525000D1E901309860D1E9010358605068884273
:1052600001D188685060002008611068401E1060FD
:105270001068704700F1080141604FF0FF31816014
:1052800000F10801C1600161002101607047002147
:105290000161704710B502460B685C1C0CB91069BF
:1052A00007E002F1080000E04068446824689C427E
:1052B000FAD944684C604C68A160886041600A611A
:1052C0001468641C146010BD42684A6093688B6067
:1052D000936859609160086103685B1C03607047C4
:1052E00000BF502080F31188BFF34F8FBFF36F8F43
:1052F00000BF0E480068401C0C4908600846006862
:10530000012812D10A480068C0B208B9012000E0A3
:10531000002050B900BF502080F31188BFF34F8F99
:10532000BFF36F8F00BF00BFFEE770479C000020F7
:1053300004ED00E00D48006850B900BF502080F334
:105340001188BFF34F8FBFF36F8F00BF00BFFEE721
:1053500006480068401E054908600846006820B9F4
:10536000002080F3118800BF00BF70479C00002020
:1053700070B506463546002E3FD0083D2C461F49E5
:1053800060680968084008B1012000E0002050B9B9
:1053900000BF502080F31188BFF34F8FBFF36F8F92
:1053A00000BF00BFFEE7206808B9012000E0002030
:1053B00050B900BF502080F31188BFF34F8FBFF367
:1053C0006F8F00BF00BFFEE70C49606809680840A6
:1053D00098B1206888B909496068096888436060A5
:1053E00000F000FA0649606809680844044908604A
:1053F0002046FFF75BFD00F0D3FB70BD9800002056
:1054000090000020154800684FF47A71B0FBF1F06D
:1054100013490860084600686FF07F41B1FBF0F067
:10542000104908600D480068B0FBF0F02D21B1FB79
:10543000F0F00D49086000204FF0E021086188611C
:10544000064800684FF47A71B0FBF1F0401E4FF04F
:10545000E02148610720086170470000000000203B
:10546000A0000020A4000020A80000202DE9F041A9
:10547000044653480068844201D9514804684FF0FB
:10548000E020006920F001004FF0E02108610846AB
:105490008169601E4B4A126802FB00154A48006889
:1054A000854202D9484800682D1A72B6BFF34F8F63
:1054B000BFF36F8FFFF7EEF980B94FF0E0208069FE
:1054C0004FF0E02148610846006940F001000861A2
:1054D0003C480068401E486162B66EE04FF0E02034
:1054E000456100204FF0E02188610846006940F0E6
:1054F00001000861A0464046FEF7A0FBB8F1000F8E
:1055000004D0BFF34F8F30BFBFF36F8F2046FEF73D
:1055100069FB62B6BFF34F8FBFF36F8F72B6BFF3F5
:105520004F8FBFF36F8F06204FF0E02108610846D0
:10553000006900F48030B8B122490968491E4FF073
:10554000E0229269AA1A881A1F490968884203D37F
:105550001C490968884202D91A490968481E4FF057
:10556000E0214861661E12E01648006860434FF073
:10557000E0218969471A13480068B7FBF0F6701CF0
:10558000104909684843C01B4FF0E02148610020E2
:105590004FF0E02188610846006940F00100086191
:1055A000304600F0FFF807480068401E4FF0E02149
:1055B00048613046FEF756FC62B6BDE8F081000057
:1055C000A4000020A0000020A800002070B5044620
:1055D0000025D4B11248006808B9012000E000207D
:1055E00050B900BF502080F31188BFF34F8FBFF335
:1055F0006F8F00BF00BFFEE700F0F4F800212046E7
:10560000FFF754FA00F0CCFA05463DB94FF0805050
:1056100004490860BFF34F8FBFF36F8F70BD000068
:105620008000002004ED00E070B50546FFF758FE4D
:1056300015B93048006800E028460446201DFFF7F1
:1056400005FE78B9E06A00EB80002B4951F8200094
:1056500040B994F82C1001208840284909688143FA
:1056600026480160A06A18B104F11800FFF7EEFDAA
:1056700023480068401C224908601E480068844294
:1056800009D1211D1F48FFF71FFE1F480068401C5D
:105690001D49086009E01D480068401E1B4908605C
:1056A0002046FFF7CDFAFFF735FCFFF743FE184819
:1056B0000068E8B10F480068844219D115480068B5
:1056C00008B9012000E0002050B900BF502080F34D
:1056D0001188BFF34F8FBFF36F8F00BF00BFFEE78E
:1056E0004FF080500C490860BFF34F8FBFF36F8FAE
:1056F00070BD0000480000202C0200206000002047
:1057000074000020F4020020540000205800002003
:10571000640000208000002004ED00E01CB51A4861
:1057200000210B468022CDE9001018A1194800F095
:1057300053F90446012C15D100BF502080F3118885
:10574000BFF34F8FBFF36F8F00BF4FF0FF30124991
:10575000086001201149086000201149086000F02C
:105760008FF810E0601C08B1012000E0002050B963
:1057700000BF502080F31188BFF34F8FBFF36F8FAE
:1057800000BF00BFFEE71CBD7C00002049444C4523
:10579000000000001D4D000878000020640000207B
:1057A0005C0000200D49096801440D4A12689142CD
:1057B00001D8012100E0002151B900BF502181F33F
:1057C0001188BFF34F8FBFF36F8F00BF00BFFEE79D
:1057D000024909680144014A116070475C000020D9
:1057E0007800002002480068401C014908607047AA
:1057F000800000201D48006818B101201C49086085
:1058000032E000201A4908601A480068B0FA80F0B7
:10581000C0F11F0101EB8100174A52F8200008B1C6
:10582000012000E0002050B900BF502080F3118813
:10583000BFF34F8FBFF36F8F00BF00BFFEE701EBD9
:1058400081020D4B03EB820042685268426000F116
:1058500008024368934202D142685268426042683B
:10586000D268064B1A6000BF70470000800000201D
:105870006C000020600000202C0200204800002066
:105880001CB54349084600780190FF200A46107075
:105890000846007800909DF8000000F0F0009DF8A8
:1058A0000020904201D1012000E0002050B900BF4B
:1058B000502080F31188BFF34F8FBFF36F8F00BF6D
:1058C00000BFFEE79DF8000000F05000314A107064
:1058D0000720314A106009E02F480068401E2E4A18
:1058E00010609DF800004006000E00909DF800003A
:1058F00000F080008028EFD027480068C0F1070042
:10590000042801D1012000E0002050B900BF502040
:1059100080F31188BFF34F8FBFF36F8F00BF00BFBD
:10592000FEE71D480068C0F10700042801D10120EE
:1059300000E0002050B900BF502080F31188BFF371
:105940004F8FBFF36F8F00BF00BFFEE712480068A4
:105950000002114A10601046008800F4E0601060F8
:105960000B4A019810700D48006840F470000B4914
:1059700008600846006840F070400860FFF742FD8C
:10598000002007490860FAF7D1FB00201CBD000089
:1059900000E400E0AC000020B000002020ED00E0BA
:1059A0009C00002010B500BF502080F31188BFF389
:1059B0004F8FBFF36F8F00BF00F04EF818B14FF05C
:1059C00080500449086000BF002080F3118800BFA8
:1059D00010BD000004ED00E02DE9FF4F85B08046CA
:1059E00089461746DDE912ABB800FFF7CDFA064647
:1059F00056B15420FFF7C8FA04460CB1266304E000
:105A00003046FFF7B5FC00E000247CB10020CDE972
:105A100000ABCDE902403A4649464046089BFFF7B5
:105A2000BBF92046FFF78EF8012501E04FF0FF3566
:105A3000284609B0BDE8F08F0549096809B9012079
:105A400005E00449096809B9022000E00020704718
:105A500064000020800000202DE9F0414FF0000894
:105A600044480068002877D143480068451C4248F4
:105A7000056015BB41480068006808B9012000E0D6
:105A8000002050B900BF502080F31188BFF34F8F22
:105A9000BFF36F8F00BF00BFFEE738480768384884
:105AA0000068364908603648076036480068401C80
:105AB00034490860FFF72EFA00BF3348006885427A
:105AC0003CD300BF2D480068006808B9012000E001
:105AD000002020B14FF0FF302B4908602DE027480F
